:1000000071C0000086C0000084C0000082C00000F3
:1000100080C000007EC000007CC000007AC00000EC
:1000200078C0000076C0000074C0000072C00000FC
:1000300070C000006EC000006CC000006AC000000C
:1000400068C0000066C0000064C0000062C000001C
:1000500060C000005EC000005CC000005AC000002C
:1000600058C0000092C0000054C0000052C0000000
:1000700050C000004EC000004CC000004AC000004C
:1000800048C0000046C0000044C0000042C000005C
:1000900040C000003EC000003CC000003AC000006C
:1000A00038C0000036C0000034C0000032C000007C
:1000B00030C000002EC000002CC000002AC000008C
:1000C00028C0000026C0000024C0000022C000009C
:1000D00020C000001EC000001CC000001AC00000AC
:1000E00018C0000011241FBECFEFD1E2DEBFCDBF8C
:1000F00000E00CBF12E0A0E0B2E0EEEBF1E000E0C7
:100100000BBF02C007900D92A030B107D9F731D0D4
:1001100054C076CFE4E6F0E080818D7F808310923A
:10012000C50087E68093C400E1ECF0E08081886040
:100130008083808180618083E2ECF0E080818F7732
:10014000808380818F7B8083808110828081866024
:1001500080830895CF93C82F8A3011F48DE0FADFA1
:10016000E0ECF0E0808185FFFDCFC093C600CF9129
:100170000895D0DFCFDF81E4EDDFC2E48C2FEADF2A
:10018000CF5FCB35D8F3C1E4F9CF1F920F920FB6F2
:100190000F9211240BB60F928F93EF93FF93E6EC1F
:1001A000F0E080818083FF91EF918F910F900BBEE3
:0E01B0000F900FBE0F901F901895F894FFCF80
:00000001FF
