:10000000F2C000005CC100005AC1000058C10000ED
:1000100056C1000054C1000052C1000050C1000090
:100020004EC100004CC100004AC1000048C10000A0
:1000300084C3000044C1000042C1000040C1000070
:100040003EC100003CC100003AC1000038C10000C0
:1000500052C5000034C1000032C1000030C10000B0
:100060002EC100008DC600002AC1000028C100007A
:1000700026C1000024C1000022C1000020C10000F0
:100080001EC100001CC100001AC1000018C1000000
:1000900016C1000014C1000012C1000010C1000010
:1000A0000EC100000CC100000AC1000008C1000020
:1000B00006C1000004C1000002C1000000C1000030
:1000C000FEC00000FCC00000FAC00000F8C0000044
:1000D000F6C00000F4C00000F2C00000F0C0000054
:1000E000EEC000006E616E00696E660000407A101E
:1000F000F35A00A0724E18090010A5D4E80000E8D9
:100100007648170000E40B54020000CA9A3B000036
:1001100000E1F505000080969800000040420F00C5
:100120000000A08601000000102700000000E80386
:10013000000000006400000000000A000000000051
:100140000100000000002C76D888DC674F0823DF10
:10015000C1DFAE59E1B1B796E5E3E453C63AE651E3
:10016000997696E8E6C28426EB898C9B62ED407C0A
:100170006FFCEFBC9C9F40F2BAA56FA5F490055AA6
:100180002AF75C936B6CF9676DC11BFCE0E40D47CB
:10019000FEF520E6B500D0ED902E030094357705EE
:1001A0000080841E080000204E0A000000C80C33A6
:1001B0003333330F986E12831141EF8D2114893B35
:1001C000E65516CFFEE6DB18D1844B381BF77C1DB5
:1001D000901DA4BBE424203284725E228100C9F108
:1001E00024ECA1E53D2711241FBECFEFD1E2DEBFF5
:1001F000CDBF00E00CBF84B78093050314BE0FB6DB
:10020000F894A895809160008861809360001092B6
:1002100060000FBEADD180910503882319F086E000
:1002200092E0D5D1E1ECF0E0808180688083EAE75C
:10023000F0E0808187688083ECE7F0E08081806473
:10024000808310927B0069D1EFE6F0E080818160CD
:10025000808386E990E09093890080938800909352
:100260008B0080938A0090938D0080938C0081B1E5
:10027000876081B925D08AB11AB88BB183608BB9F8
:1002800080ED24D0D1D0109204031092030312E029
:10029000A0E0B2E0EAE4FDE100E00BBF02C007909D
:1002A0000D92A03EB107D9F723E0A0EEB2E001C065
:1002B0001D92A330B207E1F73BD20C94A30EA0CE5F
:1002C0001092B90088E48093B8000895ECEBF0E058
:1002D000108294EE908390819923ECF79091B9006D
:1002E000987F9830A1F48093BB0084E88093BC0091
:1002F000ECEBF0E080818823ECF79091B900987FD7
:10030000983139F081E0903429F480E0089581E05B
:10031000089580E00895CF93DF93ECEBF0E024EABA
:10032000A9EBB0E0CBEBD0E034E844E92083908146
:100330009923ECF79C91987F983011F09031B1F7A8
:100340008883308390819923ECF79C91987F903239
:1003500011F0983529F44083908194FDFDCFE6CFCC
:10036000DF91CF910895519A8093BB0084E88093E8
:10037000BC00ECEBF0E080818823ECF79091B900B1
:10038000987F81E0983209F480E008958AB11AB824
:10039000599A84E88093BC00ECEBF0E080818823DC
:1003A000ECF78091BB00089584E98093BC00ECEBEE
:1003B000F0E0808184FDFDCF0895CF93DF93C62FB9
:1003C000D42FA9DF8C2FCFDF811107C08D2FCBDF7A
:1003D000C82F811104C0E8DF03C0C1E001C0C1E043
:1003E0008C2FDF91CF9108950F931F93CF93DF93BD
:1003F000C82FD62F8A018FDF8D2FB5DF81110BC05B
:1004000081E08C0F63DFC82F811107C0BFDFF801C7
:100410008083CADF03C0C1E001C0C1E08C2FDF913F
:10042000CF911F910F91089540E06BE680EDC5DFFD
:1004300041E06AE180EDC1DF40E06CE180EDBDDFCD
:1004400040E068E380EDB9DF40E068E680EDB5CFDD
:100450000895CF93DF93EC01AC016BE380EDC4DF33
:10046000AE014F5F5F4F6CE380EDBEDFDF91CF9158
:100470000895CF93DF93EC01AC016DE380EDB4DF21
:10048000AE014F5F5F4F6EE380EDAEDFDF91CF9146
:100490000895CF93DF93EC01AC016FE380EDA4DF0F
:1004A000AE014F5F5F4F60E480ED9EDFDF91CF9143
:1004B00008950F931F93CF93DF931F921F92CDB791
:1004C000DEB78C01CE010196C4DF898190E0982FC0
:1004D00088272A81822BF80191838083CE0101969F
:1004E000C8DF898190E0982F88272A81822BF80124
:1004F00093838283CE010196CCDF898190E0982F8F
:1005000088272A81822BF801958384830F900F908E
:10051000DF91CF911F910F910895E4E6F0E0808183
:10052000877F808387E893E190938700809386009C
:10053000E0E8F0E080818260808380818E7F80832C
:10054000A1E8B0E08C9188618C938C918B7F8C9327
:100550008C9183608C9380818068808380818062AD
:100560008083808188608083259A269A279A0895BF
:10057000E4E6F0E080818D7F80831092C50087E6FD
:100580008093C400E1ECF0E080818860808380810A
:1005900080618083E2ECF0E080818F7780838081CE
:1005A0008F7B808380811082808186608083089524
:1005B000CF93C82F8A3011F48DE0FADFE0ECF0E041
:1005C000808185FFFDCFC093C600CF910895CF9362
:1005D000DF93EC018881882329F02196E9DF899156
:1005E0008111FCCFDF91CF9108950F931F93CF938B
:1005F000DF93CDB7DEB76E970FB6F894DEBF0FBEB0
:10060000CDBF8E010F5F1F4F2EE1F80111922A9589
:10061000E9F79F938F9380E092E09F938F931F93CE
:100620000F930E94170EC801D2DF0F900F900F900A
:100630000F900F900F906E960FB6F894DEBF0FBE1E
:10064000CDBFDF91CF911F910F9108950F931F930D
:10065000CF93DF93CDB7DEB76E970FB6F894DEBFBA
:100660000FBECDBF8E010F5F1F4F2EE1F80111921B
:100670002A95E9F79F938F937F936F9383E092E09E
:100680009F938F931F930F930E94170EC8019FDFB4
:100690000FB6F894DEBF0FBECDBF6E960FB6F894BE
:1006A000DEBF0FBECDBFDF91CF911F910F91089597
:1006B000EAE7F0E0808180648083808186FFFDCF5F
:1006C0000895CF93DF931F921F92CDB7DEB71A82A2
:1006D000198280E9FBDDAE014F5F5F4F60E980E981
:1006E00083DEAE014E5F5F4F60E980E97DDE2981E8
:1006F00030E0322F22278A81282B35952795359592
:100700002795359527953595279533FD386FC90180
:1007100099230CF40F9695958795959587959595C2
:100720008795959587950F900F90DF91CF910895BC
:1007300082E192E04CDF7894FFCF1F920F920FB6C8
:100740000F921124F8940FB6F894A8958091600048
:10075000886180936000109260000FBE98E088E18D
:100760000FB6F894A895809360000FBE9093600038
:10077000FFCF282F30E02053310954E6529FC001AB
:10078000539F900D112470E0605371099B01220F5B
:10079000331F660F771F660F771F660F771F620F75
:1007A000731F50E040535109640F751F860F971F48
:1007B0000895BC0180E090E06ED420E030E044E396
:1007C00053E4D5D320E030E045EF53E41AD537D4D5
:1007D00080E090E060D420E030E046E153E45FD375
:1007E0002ED4CB010895823351F0833371F08133DD
:1007F00091F4613311F4109A0895109808956133BB
:1008000011F4119A089511980895613311F4129A10
:100810000895129808958FE192E0D9CE0895CF936C
:10082000DF93EC0169818881DEDF4C816B818A81F5
:10083000A0DFBFDF8639910538F486E990E0909318
:100840008900809388000FC0813822E0920738F039
:1008500080E892E0909389008093880004C0909390
:100860008900809388006E818D81BDDF4985688510
:100870008F817FDF9EDF8639910538F486E990E02D
:1008800090938B0080938A000FC0813822E09207FA
:1008900038F080E892E090938B0080938A0004C047
:1008A00090938B0080938A006B858A859CDF4E85B0
:1008B0006D858C855EDF7DDF8639910538F486E9AC
:1008C00090E090938D0080938C000FC0813822E0DF
:1008D000920738F080E892E090938D0080938C002E
:1008E00004C090938D0080938C00DF91CF91089588
:1008F0004F925F926F927F928F929F92AF92BF9230
:10090000CF92DF92EF92FF92CF93DF9300D000D08F
:10091000CDB7DEB7CE010196CCDDCE010196C9DDA3
:1009200069817A81072E000C880B990BB6D32DECC8
:100930003CEC4CE151E465D49B01AC01B0D220E029
:1009400030E040E058E35DD46B017C016B817C8139
:10095000072E000C880B990BA0D32DEC3CEC4CE13E
:1009600051E44FD49B01AC019AD220E030E040E04A
:1009700058E347D44B015C016D817E81072E000C4A
:10098000880B990B8AD32DEC3CEC4CE151E439D423
:100990009B01AC0184D220E030E040E058E331D448
:1009A0002B013C018DE392E012DEC701B6014EDE61
:1009B0008FE092E00CDE86E492E009DEC501B4012E
:1009C00045DE8FE092E003DE8FE492E000DEC301BB
:1009D000B2013CDE8FE092E0FADD20E030E040E75B
:1009E00051E4C701B60109D488236CF520E030E05A
:1009F00040E751ECC701B601B6D2181624F520E045
:100A000030E040E751E4C501B401F7D38823DCF4BA
:100A100020E030E040E751ECC501B401A4D2181643
:100A200094F420E030E040E751E4C301B201E5D3A3
:100A300088234CF420E030E040E751ECC301B201E0
:100A400092D21816DCF082B1876082B98DE290E014
:100A5000B0DE90938900809388008AE590E0A9DE5B
:100A600090938B0080938A008DE790E0A2DE9093B4
:100A70008D0080938C0081E090E002C080E090E0E7
:100A800026960FB6F894DEBF0FBECDBFDF91CF9193
:100A9000FF90EF90DF90CF90BF90AF909F908F909E
:100AA0007F906F905F904F900895E0E6F0E0808136
:100AB0008861808381E2808380818064808308955F
:100AC000F89488E592E083DD83B7817F846083BFFB
:100AD00083B7816083BF7894889583B78E7F83BF07
:100AE000E4E6F0E0808180718083E5E6F0E08081DB
:100AF000807C808308951F920F920FB60F9211246D
:100B00000BB60F92DF92EF92FF920F931F932F93EA
:100B10003F934F935F936F937F938F939F93AF9385
:100B2000BF93CF93DF93EF93FF9380910303909153
:100B300004030196909304038093030380910303BD
:100B400090910403893E93400CF4FDC00F2EFEE704
:100B5000EF2EF12CF02DDD24D394F701D08280B359
:100B600010BA0CE710E080E4F8018083A1DDC8E74B
:100B7000D0E068817981CB01880F991F880F991F78
:100B8000680F791F80E090E086D220E030E040E8F6
:100B90005AE337D36093FB027093FC028093FD020B
:100BA0009093FE028FE692E012DD6091FB0270915D
:100BB000FC028091FD029091FE0248DD8FE092E000
:100BC00006DDF701D08280B310BA81E4F80180839A
:100BD0006FDD68817981CB01880F991F880F991F7C
:100BE000680F791F80E090E056D220E030E040E8C6
:100BF0005AE307D36093FF027093000380930103CD
:100C00009093020386E892E0E2DC6091FF0270912B
:100C10000003809101039091020318DD8FE092E0C0
:100C2000D6DC82E0F701808380B310BA82E4F80159
:100C300080833EDD68817981CB01880F991F880F01
:100C4000991F680F791F80E090E025D220E030E006
:100C500040E85AE3D6D26093F7027093F80280938B
:100C6000F9029093FA028DE992E0B1DC6091F7020B
:100C70007091F8028091F9029091FA02E7DC8FE01E
:100C800092E0A5DC6091FB027091FC028091FD0274
:100C90009091FE0220E030E040EC5FE3AED2181607
:100CA00084F46091FF0270910003809101039091A0
:100CB000020320E030E040EC5FE39FD218160CF412
:100CC0003CC06091FF0270910003809101039091FC
:100CD000020320E030E040EC5FE38FD218167CF492
:100CE0006091F7027091F8028091F9029091FA02F6
:100CF00020E030E040EC5FE380D21816F4F0609121
:100D0000FB027091FC028091FD029091FE0220E0B6
:100D100030E040EC5FE371D218168CF46091F7027A
:100D20007091F8028091F9029091FA0220E030E08F
:100D300040EC5FE362D2181614F4B7DEC1DE109205
:100D4000040310920303FF91EF91DF91CF91BF91C4
:100D5000AF919F918F917F916F915F914F913F9153
:100D60002F911F910F91FF90EF90DF900F900BBE8E
:100D70000F900FBE0F901F90189582B112B8089572
:100D80001F920F920FB60F9211240BB60F922F9352
:100D90003F934F935F936F937F938F939F93AF9303
:100DA000BF93CF93EF93FF93F894C091C6008C2F1D
:100DB000FFDB8FE99FE00197F1F700C00000E091B1
:100DC000F602F0E0EE51FD4FC0838091F6028F5F96
:100DD0008093F6028091F6028F3020F4CC2309F440
:100DE0003BC047C08FE092E0F2DB84EB92E0EFDBA8
:100DF00082EE92E0ECDB8FE092E0E9DBCC2349F17C
:100E000060DC9093E1028093E00282EC92E0DFDB11
:100E10008091E0029091E102E8DB89EC92E0D7DB7F
:100E20008091E0029091E102C3973CF48091E0024E
:100E30009091E102863F9F4F34F48FEC92E0C7DB44
:100E40009CDF33DE3DDE54DD019719F082EE92E047
:100E5000E6DC1092F6020DC08FE092E0B8DB84EB86
:100E600092E0B5DB82EE92E0B2DB8FE092E0AFDBA6
:100E7000F0CF7894FF91EF91CF91BF91AF919F9177
:100E80008F917F916F915F914F913F912F910F9033
:100E90000BBE0F900FBE0F901F9018955058BB2798
:100EA000AA270ED070C161D130F066D120F031F4A4
:100EB0009F3F11F41EF456C10EF4E095E7FB4CC1C0
:100EC000E92F72D180F3BA17620773078407950779
:100ED00018F071F49EF58AC10EF4E0950B2EBA2F2E
:100EE000A02D0B01B90190010C01CA01A001112430
:100EF000FF27591B99F0593F50F4503E68F11A16DC
:100F0000F040A22F232F342F4427585FF3CF46956C
:100F100037952795A795F0405395C9F77EF41F168E
:100F2000BA0B620B730B840BBAF09150A1F0FF0F58
:100F3000BB1F661F771F881FC2F70EC0BA0F621F44
:100F4000731F841F48F4879577956795B795F79534
:100F50009E3F08F0B3CF9395880F08F09927EE0FC6
:100F6000979587950895D4D008F481E008950CD022
:100F70000AC102D140F0F9D030F021F45F3F19F0FE
:100F8000EBC0511134C1EEC00FD198F39923C9F3CE
:100F90005523B1F3951B550BBB27AA27621773077F
:100FA000840738F09F5F5F4F220F331F441FAA1F33
:100FB000A9F333D00E2E3AF0E0E830D091505040F3
:100FC000E695001CCAF729D0FE2F27D0660F771FA1
:100FD000881FBB1F261737074807AB07B0E809F083
:100FE000BB0B802DBF01FF2793585F4F2AF09E3F18
:100FF000510568F0B1C0FBC05F3FECF3983EDCF3F5
:10100000869577956795B795F7959F5FC9F7880F90
:10101000911D9695879597F90895E1E0660F771FE2
:10102000881FBB1F621773078407BA0720F0621B73
:10103000730B840BBA0BEE1F88F7E0950895BCD0B4
:1010400088F09F5790F0B92F9927B751A0F0D1F0B1
:10105000660F771F881F991F1AF0BA95C9F712C03B
:10106000B13081F0C3D0B1E00895C0C0672F782FB0
:101070008827B85F39F0B93FCCF3869577956795A7
:10108000B395D9F73EF490958095709561957F4F13
:101090008F4F9F4F0895E89409C097FB3EF49095B9
:1010A0008095709561957F4F8F4F9F4F9923A9F041
:1010B000F92F96E9BB279395F695879577956795D0
:1010C000B795F111F8CFFAF4BB0F11F460FF1BC014
:1010D0006F5F7F4F8F4F9F4F16C0882311F096E9A7
:1010E00011C0772321F09EE8872F762F05C0662355
:1010F00071F096E8862F70E060E02AF09A95660F0E
:10110000771F881FDAF7880F9695879597F90895C6
:10111000990F0008550FAA0BE0E8FEEF1616170608
:10112000E807F907C0F012161306E407F50798F070
:10113000621B730B840B950B39F40A2661F0232B89
:10114000242B252B21F408950A2609F4A140A69505
:101150008FEF811D811D089597F99F6780E870E0EA
:1011600060E008959FEF80EC089500240A9416161D
:10117000170618060906089500240A941216130685
:10118000140605060895092E0394000C11F4882313
:1011900052F0BB0F40F4BF2B11F460FF04C06F5F2F
:1011A0007F4F8F4F9F4F089557FD9058440F551F05
:1011B00059F05F3F71F04795880F97FB991F61F0D9
:1011C0009F3F79F087950895121613061406551F50
:1011D000F2CF4695F1DF08C0161617061806991FBC
:1011E000F1CF86957105610508940895E894BB27B1
:1011F00066277727CB0197F908958ADF08F48FEFE8
:1012000008950BD0C0CFB1DF28F0B6DF18F09523DA
:1012100009F0A2CFA7CF1124EACFC6DFA0F3959F94
:10122000D1F3950F50E0551F629FF001729FBB27CD
:10123000F00DB11D639FAA27F00DB11DAA1F649F79
:101240006627B00DA11D661F829F2227B00DA11D2C
:10125000621F739FB00DA11D621F839FA00D611DB2
:10126000221F749F3327A00D611D231F849F600DD3
:10127000211D822F762F6A2F11249F5750408AF00C
:10128000E1F088234AF0EE0FFF1FBB1F661F771F98
:10129000881F91505040A9F79E3F510570F05CCFD8
:1012A000A6CF5F3FECF3983EDCF386957795679584
:1012B000B795F795E7959F5FC1F7FE2B880F911DB6
:1012C0009695879597F908952F923F924F925F9246
:1012D0006F927F928F929F92AF92BF92CF92DF9246
:1012E000EF92FF920F931F93CF93DF93CDB7DEB7AB
:1012F00060970FB6F894DEBF0FBECDBF7C011B0117
:101300006A01FC0117821682838181FF2AC39E0134
:101310002F5F3F4F3901F7019381F10193FD8591D3
:1013200093FF81911F01882309F417C3853239F493
:1013300093FD859193FF81911F01853231F4B701AF
:1013400090E039D456016501E6CF10E0512C912C84
:10135000FFE1F915D8F08B3279F038F4803279F06A
:101360008332A1F4F92DF0612EC08D3261F080330B
:1013700069F4292D21602DC0392D3260932E892DDD
:101380008460982E2AC0E92DE86015C097FC2DC016
:1013900020ED280F2A3088F496FE06C03AE0139F0D
:1013A000200D1124122F19C08AE0589E200D1124FF
:1013B000522EE92DE0629E2E10C08E3231F496FC42
:1013C000CCC2F92DF0649F2E08C08C3621F4292D53
:1013D0002068922E02C0883641F4F10193FD859178
:1013E00093FF81911F018111B3CF9BEB980F933035
:1013F00020F4992D9061805E07C09BE9980F93308F
:1014000008F059C1992D9F7E96FF16E09F73992E83
:10141000853619F49064992E08C0863621F4392F48
:101420003068932E02C01111115097FE07C01C3373
:1014300050F444244394410E27E00BC0183038F098
:1014400027E017E005C027E09CE3492E02C0212FCA
:10145000412C560184E0A80EB11CF6016081718117
:1014600082819381042DA301B8D26C01F981FC879C
:10147000F0FF02C0F3FF06C091FC06C092FE06C05A
:1014800000E205C00DE203C00BE201C000E08C8564
:101490008C7019F0011143C280C297FE10C04C0C31
:1014A000FC85F4FF04C08A81813309F44A94141442
:1014B00074F528E0241578F588E0482E2CC096FCB9
:1014C0002AC0812F90E08C159D059CF03CEFC3163F
:1014D0003FEFD30674F0892D8068982E0AC0E2E0B1
:1014E000F0E0EC0FFD1FE10FF11D8081803319F456
:1014F00011501111F4CF97FE0EC044244394410EB5
:10150000812F90E0C816D9062CF41C1904C044247D
:10151000439401C010E097FE06C01C141D0434F46F
:10152000C601019605C085E090E002C081E090E030
:1015300001110196112331F0212F30E02F5F3F4F31
:10154000820F931F252D30E08217930714F4581A49
:1015500001C0512C892D897041F4552031F0B7011B
:1015600080E290E028D35A94F8CF002321F0B7010D
:10157000802F90E020D393FC08C0552031F0B701B4
:1015800080E390E018D35A94F8CF97FE4AC0460102
:10159000D7FE02C0812C912CC60188199909F3014C
:1015A000E80FF91FFE87ED87960124193109388B62
:1015B0002F87012F10E01195019511093FEF831638
:1015C000930621F4B7018EE290E0F5D2C814D90455
:1015D0004CF08F8598898815990524F4ED85FE8552
:1015E000818101C080E3F1E08F1A91082D853E854D
:1015F0002F5F3F4F3E872D878016910624F0B7015D
:1016000090E0D9D2DBCFC814D90441F49A81963343
:1016100020F4953319F43C8534FF81E3B70190E061
:1016200048C08A81813319F09C859F7E9C87B701D1
:1016300090E0C1D2111105C094FC16C085E690E07F
:1016400015C0B7018EE290E0B6D21E5F82E001E0E5
:10165000080FF301E80FF11D8081B70190E0ABD2D4
:10166000802F0113F4CFE8CF85E490E0B701A3D237
:10167000D7FC06C0C114D10441F4EC85E4FF05C0D9
:10168000D194C194D1088DE201C08BE2B70190E002
:1016900092D280E32AE0C216D1042CF08F5FFAE0E8
:1016A000CF1AD108F7CFB70190E085D2B701C601B4
:1016B000C09681D249C1833631F0833779F08335C2
:1016C00009F052C01FC0560132E0A30EB11CF60152
:1016D0008081898301E010E0630111C05601F2E0CE
:1016E000AF0EB11CF601C080D18096FE03C0612F01
:1016F00070E002C06FEF7FEFC60152D28C01F92D6E
:10170000FF7713C0560122E0A20EB11CF601C08083
:10171000D18096FE03C0612F70E002C06FEF7FEFB3
:10172000C60133D28C01F92DF0689F2EF3FD18C04D
:10173000852D90E00817190798F4B70180E290E032
:101740003AD25A94F5CFF60197FC859197FE819194
:101750006F01B70190E02FD251105A940150110936
:101760000115110581F7F0C0843611F0893659F55D
:10177000560197FE09C024E0A20EB11CF60160815B
:101780007181828193810AC0F2E0AF0EB11CF60133
:1017900060817181072E000C880B990BF92DFF7663
:1017A0009F2E97FF09C090958095709561957F4F0A
:1017B0008F4F9F4FF0689F2E2AE030E0A30165D243
:1017C000C82EC6183EC0092D853721F40F7E2AE0A9
:1017D00030E01DC0097F8F3691F018F4883559F03C
:1017E000BCC0803719F0883711F0B7C0006104FF22
:1017F00009C0046007C094FE08C0066006C028E067
:1018000030E005C020E130E002C020E132E05601C6
:1018100007FF09C084E0A80EB11CF6016081718148
:101820008281938108C0F2E0AF0EB11CF6016081A5
:10183000718180E090E0A30128D2C82EC6180F77EE
:10184000902E96FE0BC0092D0E7FC11650F494FE0B
:101850000AC092FC08C0092D0E7E05C0DC2C092DA3
:1018600003C0DC2C01C0D12E04FF0DC0FE01EC0D25
:10187000F11D8081803311F4097E09C002FF06C08A
:10188000D394D39404C0802F867809F0D39403FDB9
:1018900010C000FF06C01C2DD51478F4150D1D19BD
:1018A0000CC0D51450F4B70180E290E084D1D394F9
:1018B000F8CFD51410F45D1801C0512C04FF0FC0EF
:1018C000B70180E390E077D102FF16C001FD03C0AD
:1018D00088E790E002C088E590E0B7010CC0802F57
:1018E000867851F001FF02C08BE201C080E207FD63
:1018F0008DE2B70190E05FD1C11630F4B70180E30B
:1019000090E059D11150F8CFCA94F301EC0DF11DBC
:101910008081B70190E04FD1C110F6CF15C0F4E03F
:10192000F51550F584E0581A93FE1EC0011125C02C
:101930002C8523FF27C004EE10E0392D3071932E43
:10194000F8018491811121C0552009F4FCCCB70124
:1019500080E290E030D15A94F7CFF70186819781E9
:1019600023C08FEF9FEF20C0B70180E290E023D12A
:101970005A945110F9CFDACF512CB701802F90E053
:101980001AD1D6CF08EE10E0D8CF91108052B7010F
:1019900090E011D10F5F1F4FD3CF23E0251510F436
:1019A00083E0C1CF512CC4CF60960FB6F894DEBF50
:1019B0000FBECDBFDF91CF911F910F91FF90EF90A0
:1019C000DF90CF90BF90AF909F908F907F906F905F
:1019D0005F904F903F902F900895283008F027E0B7
:1019E0003327DA01990F311D87FD9160009661055B
:1019F000710539F432602E5F3D9330E32A95E1F7AB
:101A000008959F3F30F080387105610509F03C5F13
:101A10003C5F3D93913008F08068911DDF93CF9338
:101A20001F930F93FF92EF92192F987F9695E92FAE
:101A300096959695E90FFF27EA5BFE4F9927332786
:101A4000EE24FF24A701E70105900894079428F4E9
:101A5000360FE71EF81E491F511D660F771F881F9E
:101A6000991F0694A1F70590079428F4E70EF81E35
:101A7000491F561FC11D770F881F991F661F0694A7
:101A8000A1F70590079428F4F80E491F561FC71FA9
:101A9000D11D880F991F661F771F0694A1F7059027
:101AA000079420F4490F561FC71FD81F990F661FB0
:101AB000771F881F0694A9F784911095177041F03D
:101AC000D695C79557954795F794E7941A95C1F71A
:101AD000ECEEF0E068941590159135916591959133
:101AE00005907FE27395E118F10A430B560BC90B81
:101AF000D009C0F7E10CF11E431F561FC91FD01DAE
:101B00007EF4703311F48A95E6CFE894015030F0FA
:101B1000080F0AF40027021708F4202F2395022F3C
:101B20007A3328F079E37D932A95E9F710C07D9305
:101B30002A9589F606949795679537951795179482
:101B4000E118F10A430B560BC90BD00998F0239505
:101B50007E9173957A3308F070E37C932013B8F785
:101B60007E9170617D9330F0839571E37D9370E396
:101B70002A95E1F71124EF90FF900F911F91CF91DB
:101B8000DF91992787FD90950895FC01059061509C
:101B900070400110D8F7809590958E0F9F1F089583
:101BA000FC016150704001900110D8F7809590952C
:101BB0008E0F9F1F08950F931F93CF93DF93FB0109
:101BC000238121FD03C08FEF9FEF2CC022FF16C0A1
:101BD00046815781248135814217530744F4A081FF
:101BE000B1819D012F5F3F4F318320838C932681EC
:101BF00037812F5F3F4F3783268314C08B01EC0161
:101C0000FB010084F185E02D1995892BE1F6D801BF
:101C100016968D919C911797019617969C938E938B
:101C20001697CE01DF91CF911F910F9108950F93D9
:101C30001F93CF93DF93CDB7DEB72E970FB6F894EF
:101C4000DEBF0FBECDBF0E891F8986E08C831A834D
:101C500009838FEF9FE79E838D83AE01465E5F4FC2
:101C6000688D798DCE0101962FDBEF81F885E00F2D
:101C7000F11F10822E960FB6F894DEBF0FBECDBFB7
:101C8000DF91CF911F910F910895FA01AA27283073
:101C900051F1203181F1E8946F936E7F6E5F7F4F39
:101CA0008F4F9F4FAF4FB1E03ED0B4E03CD0670FB5
:101CB000781F891F9A1FA11D680F791F8A1F911D08
:101CC000A11D6A0F711D811D911DA11D20D009F458
:101CD00068943F912AE0269F11243019305D31939A
:101CE000DEF6CF010895462F4770405D4193B3E083
:101CF0000FD0C9F7F6CF462F4F70405D4A3318F02A
:101D0000495D31FD4052419302D0A9F7EACFB4E0DA
:101D1000A6959795879577956795BA95C9F7009792
:101D20006105710508959B01AC010A2E0694579533
:101D3000479537952795BA95C9F7620F731F841F8A
:0A1D4000951FA01D0895F894FFCF31
:101D4A002564002566005265736574696E67200D07
:101D5A000A0057656C636F6D652121210D0A0053D6
:101D6A006572766F204E756D62657220646F657359
:101D7A00206E6F742065786973740D0A004163637D
:101D8A00656C583A2000416363656C593A200041FA
:101D9A006363656C5A3A200041626F757420746FF0
:101DAA0020676F20746F20536C6565700D0A0056AA
:101DBA006F6C746167652031204C6576656C2052C2
:101DCA006561643A2000566F6C7461676520322041
:101DDA004C6576656C20526561643A2000566F6CDA
:101DEA00746167652033204C6576656C20526561A5
:101DFA00643A20005265616420537472696E673ACE
:101E0A00200054656D703A200020432A0D0A0041D3
:101E1A0059592043616C69656E746521210D0A0068
:00000001FF
